{
  "transactions": [
    {
      "hash": "0x37aa0f659445c4788e5e23086e9c38e6b103bccfecefccf8630f6b5896858e97",
      "transactionType": "CALL",
      "contractName": null,
      "contractAddress": "0x779877a7b0d9e8603169ddbd7836e478b4624789",
      "function": "transferAndCall(address,uint256,bytes)",
      "arguments": [
        "0x9DdfaCa8183c41ad55329BdeeD9F6A8d53168B1B",
        "3000000000000000000",
        "0x80ccb4653901282f7ec06de614f0257c7f256390dcf3a9df8c1759ee60886421"
      ],
      "transaction": {
        "from": "0xea97f8d591bbb87a1229a3290adf05752d9777ed",
        "to": "0x779877a7b0d9e8603169ddbd7836e478b4624789",
        "gas": "0x1c1ff",
        "value": "0x0",
        "input": "0x4000aea00000000000000000000000009ddfaca8183c41ad55329bdeed9f6a8d53168b1b00000000000000000000000000000000000000000000000029a2241af62c00000000000000000000000000000000000000000000000000000000000000000060000000000000000000000000000000000000000000000000000000000000002080ccb4653901282f7ec06de614f0257c7f256390dcf3a9df8c1759ee60886421",
        "nonce": "0xb",
        "chainId": "0xaa36a7"
      },
      "additionalContracts": [],
      "isFixedGasLimit": false
    }
  ],
  "receipts": [
    {
      "status": "0x1",
      "cumulativeGasUsed": "0x3382f3",
      "logs": [
        {
          "address": "0x779877a7b0d9e8603169ddbd7836e478b4624789",
          "topics": [
            "0xddf252ad1be2c89b69c2b068fc378daa952ba7f163c4a11628f55a4df523b3ef",
            "0x000000000000000000000000ea97f8d591bbb87a1229a3290adf05752d9777ed",
            "0x0000000000000000000000009ddfaca8183c41ad55329bdeed9f6a8d53168b1b"
          ],
          "data": "0x00000000000000000000000000000000000000000000000029a2241af62c0000",
          "blockHash": "0x373945b7c1b76cbbf580594cf9e98c8e7e408438d93a1f42dd159955443cc835",
          "blockNumber": "0x6ad71b",
          "transactionHash": "0x37aa0f659445c4788e5e23086e9c38e6b103bccfecefccf8630f6b5896858e97",
          "transactionIndex": "0x24",
          "logIndex": "0x1e",
          "removed": false
        },
        {
          "address": "0x779877a7b0d9e8603169ddbd7836e478b4624789",
          "topics": [
            "0xe19260aff97b920c7df27010903aeb9c8d2be5d310a2c67824cf3f15396e4c16",
            "0x000000000000000000000000ea97f8d591bbb87a1229a3290adf05752d9777ed",
            "0x0000000000000000000000009ddfaca8183c41ad55329bdeed9f6a8d53168b1b"
          ],
          "data": "0x00000000000000000000000000000000000000000000000029a2241af62c00000000000000000000000000000000000000000000000000000000000000000040000000000000000000000000000000000000000000000000000000000000002080ccb4653901282f7ec06de614f0257c7f256390dcf3a9df8c1759ee60886421",
          "blockHash": "0x373945b7c1b76cbbf580594cf9e98c8e7e408438d93a1f42dd159955443cc835",
          "blockNumber": "0x6ad71b",
          "transactionHash": "0x37aa0f659445c4788e5e23086e9c38e6b103bccfecefccf8630f6b5896858e97",
          "transactionIndex": "0x24",
          "logIndex": "0x1f",
          "removed": false
        },
        {
          "address": "0x9ddfaca8183c41ad55329bdeed9f6a8d53168b1b",
          "topics": [
            "0x1ced9348ff549fceab2ac57cd3a9de38edaaab274b725ee82c23e8fc8c4eec7a",
            "0x80ccb4653901282f7ec06de614f0257c7f256390dcf3a9df8c1759ee60886421"
          ],
          "data": "0x000000000000000000000000000000000000000000000000000000000000000000000000000000000000000000000000000000000000000029a2241af62c0000",
          "blockHash": "0x373945b7c1b76cbbf580594cf9e98c8e7e408438d93a1f42dd159955443cc835",
          "blockNumber": "0x6ad71b",
          "transactionHash": "0x37aa0f659445c4788e5e23086e9c38e6b103bccfecefccf8630f6b5896858e97",
          "transactionIndex": "0x24",
          "logIndex": "0x20",
          "removed": false
        }
      ],
      "logsBloom": "0x00000004000000000800000000000000000000000020000000000000020000000000000000000000000000000000000000000000000000000000000000000000000000000000000000000008000000000000000000000000000020000020000008000000000000000000000000000000000000000000000000000010000040000000000000000000000000010000800000000020000000000000000000000000000000000000000000000000010000000000000000000000400004000000000000000062000000000000000000000000000000000000000100000000000000000010000000000000800000000000800000000000020000000000000000000000",
      "type": "0x2",
      "transactionHash": "0x37aa0f659445c4788e5e23086e9c38e6b103bccfecefccf8630f6b5896858e97",
      "transactionIndex": "0x24",
      "blockHash": "0x373945b7c1b76cbbf580594cf9e98c8e7e408438d93a1f42dd159955443cc835",
      "blockNumber": "0x6ad71b",
      "gasUsed": "0x133b1",
      "effectiveGasPrice": "0x8ba7af07",
      "from": "0xea97f8d591bbb87a1229a3290adf05752d9777ed",
      "to": "0x779877a7b0d9e8603169ddbd7836e478b4624789",
      "contractAddress": null
    }
  ],
  "libraries": [],
  "pending": [],
  "returns": {},
  "timestamp": 1730615585,
  "chain": 11155111,
  "commit": "948ae52"
}